:020000022000DC
:10700000000004201972020001720200118A0300BC
:1070100005720200077202000972020000000000FF
:107020000000000000000000000000000B720200E1
:107030000D720200000000000F72020011720200C7
:10704000C1E5020013720200D1E5020013720200D2
:107050001372020013720200EDDF020013720200CD
:107060001372020013720200137202001372020004
:1070700013720200137202001372020013720200F4
:1070800013720200F58903001372020013720200EA
:107090001372020013720200D1BE030013720200C9
:1070A00013720200137202001372020013720200C4
:1070B00013720200137202000000000000000000C2
:1070C00013720200137202001372020013720200A4
:1070D0001372020013720200137202007523030080
:1070E000137202001372020013720200000000000B
:1070F0000000000013720200000000001372020082
:10710000000000000000000000000000000000007F
:10711000000000000000000000000000000000006F
:10712000000000000000000000000000000000005F
:10713000000000000000000000000000000000004F
:10714000000000000000000000000000000000003F
:10715000000000000000000000000000000000002F
:10716000000000000000000000000000000000001F
:10717000000000000000000000000000000000000F
:1071800000000000000000000000000000000000FF
:1071900000000000000000000000000000000000EF
:1071A00000000000000000000000000000000000DF
:1071B00000000000000000000000000000000000CF
:1071C00000000000000000000000000000000000BF
:1071D00000000000000000000000000000000000AF
:1071E000000000000000000000000000000000009F
:1071F000000000000000000000000000000000008F
:10720000FEE7FEE7FEE7FEE7FEE7FEE7FEE7FEE756
:10721000FEE7FEE700F002B8FFF7FCBF0F484FF0B3
:107220000701884385460E4880470E48016841F4AF
:1072300070010160BFF34F8FBFF36F8F00F01AB87A
:1072400009480A490A4A884207D0521A05D00378E9
:1072500001300B700131013AF9D170470000042070
:107260007596020088ED00E040D10300E82A002076
:10727000E82A002039493A480A1A02D007229143E5
:107280008D46384938480A1A06D00722914381F3BF
:107290000988022282F3148834483549354A00F0BF
:1072A0003EF835483549364A00F039F83548364910
:1072B000364A00F034F836483649374A00F02FF89D
:1072C00036483749374A00F02AF837483749384AAC
:1072D00000F025F837483849384A00F020F8384897
:1072E0003849002200F033F837483849002200F0CE
:1072F0002EF837483749091A15F0D8FC364A904716
:1073000024482549884205D00268043003B49047D8
:1073100003BCF7E700200021304A9047FEE788428F
:1073200014D0521A12D003460B43134303242342B2
:1073300006D1036804300B600431043AF9D1704778
:10734000037801300B700131013AF9D1704788425E
:1073500002D002700130FAE77047000000000420FC
:1073600000E003200000042000000420E8FE0300E9
:10737000E82A0020A42C0020E0730200E073020041
:1073800004D00300E8FE0300E82A0020E82A0020D9
:1073900040D1030040D1030040D1030040D103009D
:1073A00040D1030040D1030040D1030040D103008D
:1073B000E5FE0300A4000400A42C0020A42C00205F
:1073C000A42C002030400020304000203440002019
:1073D000344000203460002041720200018F02001E
:1073E000BFF34F8F00BF064BDB6803F4E062044934
:1073F000044B1343CB60BFF34F8F00BF00BFFDE7CB
:1074000000ED00E00400FA0574DF704700BF184685
:1074100076DF704700BF18467ADF704700BF184616
:107420007CDF704700BF18467FDF704700BF1846FB
:107430008FDF704700BF184690DF704700BF1846C7
:10744000B0DF704700BF1846B1DF704700BF184675
:1074500066DF704700BF184641DF704700BF18461F
:1074600082B00190019B184602B0704782B0019033
:10747000019B184602B0704700B583B00190019B94
:107480001B68184600F002F90346002B04D10B4993
:107490004FF4F67000F01EF9019B1B681F2B02D8F9
:1074A0004FF0A04306E0019B1B6803F01F02019B05
:1074B0001A60034B184603B05DF804FB40D103008B
:1074C0000003005000B585B00190084611461A46E9
:1074D00003468DF803300B468DF8023013468DF8C5
:1074E000013001AB1846FFF7C7FF03909DF803205A
:1074F0009DF802305B001A439DF801309B001A434F
:107500009DF818301B0242EA03019DF81C301B0451
:10751000019A1943039B02F5E07243F8221000BF61
:1075200005B05DF804FB00B585B00390002301931E
:10753000002300930023012201210398FFF7C2FFDB
:1075400000BF05B05DF804FB00B585B003900B46A5
:107550008DF80B309DF80B30002201920022009232
:10756000002200210398FFF7ADFF00BF05B05DF8D2
:1075700004FB00B585B0019001AB1846FFF77CFF16
:107580000390019B012202FA03F31946039800F0CD
:1075900069F800BF05B05DF804FB00B585B0019047
:1075A00001AB1846FFF768FF0390019B012202FA26
:1075B00003F31946039800F05FF800BF05B05DF8CB
:1075C00004FB00B585B0019001AB1846FFF754FFEE
:1075D0000390039BD3F804350293029BDA43019B8B
:1075E000012101FA03F31A40039BC3F80825019B0C
:1075F00001229A40029B1A40039BC3F80C2500BF4E
:1076000005B05DF804FB00B583B001900091009BCC
:10761000002B03D10198FFF7C0FF02E00198FFF7AC
:10762000A8FF00BF03B05DF804FB00B585B0019072
:1076300001AB1846FFF720FF0390039800F00AF80B
:107640000246019B22FA03F303F00103184605B03A
:107650005DF804FB82B00190019BD3F81035184609
:1076600002B0704782B001900091019B009AC3F86C
:10767000082500BF02B0704782B001900091019BC5
:10768000009AC3F80C2500BF02B0704784B0019087
:10769000019B5B09029300230393029B002B03D001
:1076A000029B012B04D007E04FF0FF33039303E06C
:1076B0004FF6FF73039300BF019B03F01F03019379
:1076C000039A019B22FA03F303F00103DBB218468D
:1076D00004B0704700B583B003460091ADF80630A2
:1076E000BDF80630009A194603480BF059FF00BF59
:1076F00003B05DF804FB00BFEFBEADDE00B583B0A4
:1077000003468DF807300220FFF747FF0320FFF7FD
:1077100044FF9DF80730022B11D0022B13DC002B05
:1077200002D0012B04D00EE00320FFF722FF0BE074
:107730000320FFF71EFF0220FFF71BFF04E00220DB
:10774000FFF717FF00E000BF00BF03B05DF804FBC8
:1077500000B583B003468DF807300B468DF8063030
:1077600013468DF805301C20FFF717FF1D20FFF78B
:1077700014FF1E20FFF711FF9DF80730002B03D0E8
:107780001D20FFF7F6FE0AE09DF80630002B03D01F
:107790001E20FFF7EEFE02E01C20FFF7EAFE00BF0E
:1077A00003B05DF804FB000000B58BB003460A4649
:1077B0008DF8073013468DF806301020FFF7EDFEE8
:1077C0009DF8073043F04003DBB28DF820309DF880
:1077D00006308DF821300023ADF81C3008AB039340
:1077E0000223049307AB05930223069303AB002205
:1077F00019460A4812F0B2FF0990099B002B05D0E8
:10780000074A4FF4837109980BF0CAFE1020FFF766
:10781000B0FE00BF0BB05DF804FB00BFA4D50300B1
:1078200070D1030000B58BB003468DF807301020EF
:10783000FFF7B3FE9DF8073043F02003DBB28DF86D
:10784000203000238DF821300023ADF81C3008AB28
:1078500003930223049307AB05930223069303AB20
:10786000002219460A4812F079FF0990099B002B63
:1078700005D0084A4FF4897109980BF091FE102049
:10788000FFF777FE9DF81D3018460BB05DF804FB3E
:10789000A4D5030070D1030000B585B003468DF870
:1078A00007300120FFF7BEFF03468DF80F309DF92A
:1078B0000F3023F007035AB29DF9073003F0070396
:1078C0005BB213435BB28DF80F309DF80F30194651
:1078D0000120FFF769FF00BF05B05DF804FB000061
:1078E00000B585B003460A468DF8073013468DF87B
:1078F00006309DF80730032B23D89DF8073004335A
:107900008DF80F309DF80F301846FFF78BFF0346B8
:107910008DF80E309DF90E3023F007035AB29DF911
:10792000063003F007035BB213435BB28DF80E30F1
:107930009DF80E209DF80F3011461846FFF734FFD2
:107940000CE0084A084BD31ADB081B0443F002037F
:107950009DF807200549184613F06CFC00BF05B0E0
:107960005DF804FBB8D0030080D00300CCD1030045
:1079700030B585B003468DF8073000238DF80F3001
:1079800014E09DF80F300433DBB29DF80F40184629
:10799000FFF748FF03461A4604F110036B4403F84F
:1079A000082C9DF80F3001338DF80F309DF80F3003
:1079B000032BE6D900238DF80E3026E09DF80E301B
:1079C00010336B4413F8083C8DF80D309DF80D30E2
:1079D00023F070038DF80D309DF80730012B05D191
:1079E0009DF80D3043F010038DF80D309DF80E30EA
:1079F0000433DBB29DF80D2011461846FFF7D4FE84
:107A00009DF80E3001338DF80E309DF80E30032BAB
:107A1000D4D91D4A1D4BD31ADB081B0443F00300C5
:107A20009DF80730002B01D0194B00E0194B1A4686
:107A3000194913F0FFFB00238DF80C301CE0124AAB
:107A4000124BD31ADB081B0443F003049DF80C30DF
:107A500001331D469DF80C300433DBB21846FFF7A6
:107A6000E1FE03462A460D49204613F0F4FB9DF83B
:107A70000C3001338DF80C309DF80C30032BDED91F
:107A800000BF00BF05B030BDB8D0030080D00300F8
:107A900024D2030034D2030040D2030058D20300A2
:107AA00000B583B00190054A40F2571101980BF0E0
:107AB00077FD00BF03B05DF804FB00BF70D1030089
:107AC00000B583B001901E20FFF77BFD00BF03B01F
:107AD0005DF804FB00B583B0124B1B7883F0010303
:107AE000DBB2002B19D003210F4802F0F3FF019005
:107AF000019B0093009B002B05D00C4A4FF4B27100
:107B000000980BF04DFD0A4B00224FF4005118462F
:107B10000CF06EF9034B01221A7000BF03B05DF840
:107B200004FB00BF78320020442E002070D10300F7
:107B3000082B002000B5CDB04CABA3F596731860B0
:107B40004CABA3F59673AD49186815F00FF90346D1
:107B5000002B18D1AA4B01221A70AA4AAA4BD31A99
:107B6000DB081B0443F00303A849184613F054FB39
:107B7000A34B1B781846FFF7C1FD0422A449A54872
:107B80000FF02CF94BE24CABA3F59673A2491868A1
:107B900015F0ECF80346002B18D1994B00221A700F
:107BA000984A994BD31ADB081B0443F003039B4903
:107BB000184613F031FB924B1B781846FFF79EFDD9
:107BC0000422934993480FF009F928E24CABA3F53E
:107BD00096731B681A78924B1B78D31A002B6ED1C0
:107BE0004CABA3F596731B68591C03ABF8221846DF
:107BF00015F07CF84CABA3F59273002283F8F820C3
:107C0000884B1B884FF6FF7293424CD1864B1B78F2
:107C1000002B14D0854B93F854301846FFF7F4FB33
:107C20004690469B4593459B002B05D0804A4FF4D8
:107C3000C37145980BF0B4FC7B4B00221A709DF881
:107C40000831012262F303038DF808319DF80831F1
:107C5000012262F307138DF8083103AB184615F0C3
:107C600030F803469AB203A942AB1846FFF7D8FB97
:107C70004490449B4393439B002B05D06C4A40F2B5
:107C80008D1143980BF08CFC5E4A5F4BD31ADB08D6
:107C90001B0443F0030303AA6649184613F0CAFA0B
:107CA000FFF718FFBBE1574A574BD31ADB081B04F9
:107CB00043F002036049184613F0AEFAAFE14CAB53
:107CC000A3F596731B681A785C4B1B78D31A002BAC
:107CD00039D14CABA3F59673186814F0F2FF034644
:107CE000022B30D94CABA3F596731B6801331B787C
:107CF000303B8DF827314CABA3F596731B680233EC
:107D00001B78303B8DF826319DF82731072B00F288
:107D100085819DF827319DF82621012A0CBF01227B
:107D20000022D1B2464AD154364A374BD31ADB0827
:107D30001B0443F003009DF827219DF8263141499B
:107D400013F089FA6AE14CABA3F596731B681A78B5
:107D50003D4B1B78D31A002B7CD14CABA3F596730B
:107D60001B680133184614F015FB4790479BB3F589
:107D7000FA6F1FD0479BB3F5FA6F1FDC479BB3F533
:107D80007A7F13D0479BB3F57A7F17DC479BFA2B9A
:107D900004D0479BB3F5FA7F04D00FE006238DF89B
:107DA0002F3118E005238DF82F3114E004238DF8CE
:107DB0002F3110E003238DF82F310CE0114A124BC4
:107DC000D31ADB081B0443F00203479A1F491846E5
:107DD00013F030FA23E19DF82F311846FFF75CFDD0
:107DE000084A094BD31ADB081B0443F00303479AE4
:107DF0001749184613F01EFA11E100BF68D20300BC
:107E000084320020B8D0030080D003006CD203007D
:107E10009CD2030080D50300A4D20300A8D20300A3
:107E2000D4D20300702B002078320020442E002092
:107E300070D10300D8D20300FCD2030030D303007A
:107E40007C32002034D3030048D303004CD303001A
:107E500074D303004CABA3F596731B681A78714B6F
:107E60001B78D31A002B40F088804CABA3F5967397
:107E70001B680133184614F08DFA4890489B013B6B
:107E8000172B4FD801A252F823F000BFED7E02005D
:107E9000F57E0200257F0200FD7E0200257F0200A4
:107EA000057F0200257F02000D7F0200257F020072
:107EB000257F0200257F0200157F0200257F02003A
:107EC000257F0200257F0200257F0200257F02001A
:107ED000257F0200257F0200257F0200257F02000A
:107EE000257F0200257F02001D7F020000238DF800
:107EF0002E3124E001238DF82E3120E002238DF86D
:107F00002E311CE003238DF82E3118E004238DF868
:107F10002E3114E005238DF82E3110E006238DF864
:107F20002E310CE0404A414BD31ADB081B0443F0CE
:107F30000203489A3E49184613F07CF96FE000238B
:107F40004A930AE04A9BDBB29DF82E21114618465F
:107F5000FFF7C6FC4A9B01334A934A9B032BF1DD92
:107F6000314A324BD31ADB081B0443F00303489A0F
:107F70003049184613F05EF951E04CABA3F5967307
:107F80001B681A782C4B1B78D31A002B36D14CABBC
:107F9000A3F59673186814F094FE0346012B2DD9AF
:107FA0004CABA3F596731B6801331B78303B8DF8FF
:107FB00025319DF82531002B03D09DF82531012B6B
:107FC0000AD19DF825311846FFF7D2FC04221B493F
:107FD0001B480EF003FF22E0134A144BD31ADB08B0
:107FE0001B0443F002004CABA3F596731B680133EE
:107FF0001B781A46134913F01DF910E00A4A0B4B7F
:10800000D31ADB081B0443F002004CABA3F59673B4
:108010001B681A460C4913F00DF900E000BF4DB083
:108020005DF804FB98D30300B8D0030080D00300B0
:108030009CD30300BCD30300D8D303009CD203001D
:1080400080D50300DCD30300F4D3030000B5C3B034
:1080500042ABA3F58273186042ABA3F582731B6831
:108060001B78002B3FD142ABA3F582731B689B8A20
:10807000ADF80231BDF80231F42B02D9F423ADF88A
:10808000023142ABA3F582731B681969BDF8022166
:1080900003AB184614F09EFEBDF8023103F584735D
:1080A0006B44002203F8FC2C03AB1846FFF742FD9B
:1080B0000F4B1B78002B16D0BDF8022103AB1946DD
:1080C0000C480EF08BFE4190419B002B0BD00A4ACE
:1080D0000A4BD31ADB081B0443F0030303AA084925
:1080E000184613F0A7F800BF43B05DF804FB00BFCB
:1080F000AC2C002080D50300B8D0030080D0030052
:108100001CD4030010B596B001900091019B1B8810
:10811000232B00F39180002B40DC7CE13B3B1B2BAD
:1081200000F2798101A252F823F000BF2F830200F0
:1081300017840200178402001784020017840200CB
:1081400017840200178402001784020017840200BB
:1081500017840200178402001784020017840200AB
:10816000178402001784020017840200178402009B
:10817000178402001784020017840200178402008B
:1081800017840200A1830200058302001784020005
:10819000178402001784020055830200013B222B42
:1081A00000F2398101A252F823F000BF7B83020064
:1081B000178402001784020017840200178402004B
:1081C000178402001784020017840200178402003B
:1081D000178402001784020017840200178402002B
:1081E0001784020017840200478202005B820200AB
:1081F00017840200A582020017840200178402007F
:1082000017840200178402001784020017840200FA
:1082100017840200178402001784020017840200EA
:108220001784020017840200178402006F82020084
:1082300017840200CF820200562B00F3EC803B2B08
:10824000BFF66CAFE7E07E4B18460BF029FE00222C
:1082500001210020FFF77CFAEEE0794B18460BF085
:108260001FFE012200210020FFF772FAE4E0002344
:108270008DF8303000238DF83130019B9B880CAA9B
:1082800011461846FFF7D4F81590159B0F930F9BD6
:10829000002B00F0C2806B4A40F22D210F980BF0AA
:1082A0007FF9BAE0684B1888002300228521FFF788
:1082B000BBF81590159B0E930E9B002B00F0AF8022
:1082C000604A40F233210E980BF06AF9A7E00AAB3E
:1082D00008220021184614F0AFFD019B9B880AA9D3
:1082E00000221846FFF7A8F81590159B1093109BD5
:1082F000002B00F09680534A40F23D2110980BF07D
:108300004FF98EE0504B1888002300220021FFF720
:108310009BF81590159B1393139B002B00F0838003
:10832000484A40F2432113980BF03AF97BE0019B55
:108330009B8813211846FFF76BF81590159B119336
:10834000119B002B71D03F4A40F24A2111980BF04B
:1083500027F96AE0019B9B8813211846FFF758F81C
:108360001590159B1493149B002B60D0354A40F256
:10837000512114980BF014F959E0019B9B880021BE
:108380001846FFF765F81590159B0D930D9B002B74
:108390004FD02C4A40F256210D980BF001F948E0DD
:1083A000019B06AC0633186859689A68DB680FC4ED
:1083B0009DF81830002B3ED09DF82030042B07D0BC
:1083C0009DF82030062B03D09DF82030052B32D1AC
:1083D0009DF81830022B03D102238DF8083002E0FB
:1083E00001238DF808304FF4C173ADF80C30019BB8
:1083F0009B8802AA11461846FFF722F81590159B94
:108400001293129B002B16D00E4A40F27121129843
:108410000BF0C6F80FE000BF0EE000BF0CE000BF9D
:108420000AE000BF08E000BF06E000BF04E000BFB4
:1084300002E000BF00E000BF00BF16B010BD00BFEB
:10844000082B002070D10300702B002000B583B0F2
:1084500001900091009B5A88114B1B889A421AD1B7
:10846000009B1B8840F67722934214D1009B9B8887
:10847000033B9AB20B4B1A800B4A0C4BD31ADB0806
:108480001B0443F00300074B1B881A46054B1B884F
:10849000074912F0E0FE00BF03B05DF804FB00BF27
:1084A000702B0020722B0020B8D0030080D0030076
:1084B0004CD4030000B583B003468DF807309DF817
:1084C0000730002B0CD0032B12D10C4B00224FF4A1
:1084D000005118460BF08CFC094B01221A7008E081
:1084E000064B18460BF0DCFC054B00221A7000E02E
:1084F00000BF00BF03B05DF804FB00BF082B0020E5
:108500007832002000B583B0FEF7A6FF0190019BF2
:108510000093009B002B05D0044A4FF42B71009868
:108520000BF03EF800BF03B05DF804FB70D1030010
:1085300000B583B003468DF807309DF80730194623
:108540000120FFF760F800BF03B05DF804FB08B539
:1085500012F0ECFEFFF7D6FF00BF08BD00B583B0F8
:1085600003460A468DF8073013468DF806309DF80D
:1085700007301B2B31D19DF80630012B0AD1194B46
:1085800000221A70184B00224FF4404118460BF09D
:108590002FFC22E09DF80630002B1ED1124B18460E
:1085A0000BF07EFC0F4B1B78DBB283F00103DBB2D8
:1085B000002B12D00D4A0E4BD31ADB081B0443F0DC
:1085C00003030C49184612F027FE0B4B1B884FF68D
:1085D000FF72934201D1FFF77DFA00BF03B05DF84F
:1085E00004FB00BFA52C0020E82A0020B8D003001F
:1085F00080D0030094D40300702B002000B585B018
:1086000001900BF09FFC02460D4B1B68D31A03939D
:10861000039B4FF47A7202FB03F39B0B0293029BC2
:1086200040F6B732934201D9FEF7DAFE029BB3F56A
:10863000967F01D3FFF74EFA00BF05B05DF804FB4B
:10864000A82C002000B585B01520FEF7EEFF0346EC
:10865000002B0CBF012300238DF80F309DF80F3045
:10866000002B17D0234B1B78DBB283F00103DBB266
:10867000002B0FD01F4B01221A700BF063FC034636
:108680001D4A13601D4B00224FF4404118460BF069
:10869000AFFB2BE09DF80F3083F00103DBB2002B22
:1086A00024D0144B1B78DBB2002B1FD0114B0022BF
:1086B0001A70124B18460BF0F3FB0BF043FC02460A
:1086C0000D4B1B68D31A0293029B4FF47A7202FB84
:1086D00003F39B0B0193019BB3F5967F06D3019B9C
:1086E00040F6B732934201D8FFF7F4F900BF05B066
:1086F0005DF804FBA42C0020A82C0020282B0020CF
:1087000000B589B001900B468DF803300198FEF753
:10871000ADFE07909DF80330032B00F2AC8001A260
:1087200052F823F0B58702007788020035870200EF
:10873000718702000122534953480EF0A9FB0690AD
:10874000524A534BD31ADB081B0443F0030351492D
:10875000184612F061FD504B01221A7000220021D0
:108760000120FEF7F5FF4D4B18460BF099FB85E015
:10877000464A474BD31ADB081B0443F0030348491E
:10878000184612F049FD444B00221A70454B1B88D5
:108790004FF6FF72934205D0002201210020FEF720
:1087A000D7FF6BE0012200210020FEF7D1FFFFF789
:1087B00091F963E007980EF05DFB05903A4B1B784A
:1087C0001A46059B1344F42B08D8059BDAB2364BA6
:1087D0001B781344DAB2344B1A700DE02B4A2C4B41
:1087E000D31ADB081B0443F002033049184612F089
:1087F00013FD2D4B00221A702B4B1B78002B0DD034
:10880000294B1B78013B1F4AD35C0A2B0AD0264B0D
:108810001B78013B1B4AD35C0D2B03D0224B1B78EA
:10882000F32B0BD9204B1B781A46164B0021995479
:108830001448FFF77FF91C4B00221A701A4B1B7863
:108840001A46104B1344012219460F480EF020FB24
:108850000490049B002B10D0049B112B0DD0049B83
:108860000393039B002B08D0114A40F23E3103983A
:108870000AF096FE01E000BF00E000BF00BF09B0B3
:108880005DF804FBB02C002080D50300B8D00300B5
:1088900080D00300B8D40300AC2C0020082B0020AB
:1088A000CCD40300702B00208C320020E0D40300D5
:1088B00070D1030000B583B003468DF807309DF8F2
:1088C0000730023B0C2B7FD801A252F823F000BFE7
:1088D000C9890200C9890200C9890200C989020048
:1088E000C9890200C98902000B8902004789020078
:1088F00095890200C9890200C9890200C98902005C
:10890000058902000CF0F0F861E0334A334BD31ACA
:10891000DB081B0443F003033149184612F07CFCCA
:108920000120FFF705FE002200210020FEF710FFC6
:1089300009F02AFF034683F00103DBB2002B45D088
:108940000CF0CCF842E0244A244BD31ADB081B0479
:1089500043F003032349184612F05EFC0020FFF7A2
:10896000E7FD214B00221A700CF0F8F81F4B1B8812
:108970004FF6FF72934205D0002201210020FEF73E
:10898000E7FE24E0012200210020FEF7E1FEFFF7D0
:10899000A1F81CE0144B01221A700CF0B9F80E4A31
:1089A0000E4BD31ADB081B0443F00303104918468F
:1089B00012F032FC002200210120FEF7C9FE0D4B0F
:1089C00018460BF06DFA02E000BF00E000BF00BFE8
:1089D00003B05DF804FB00BFB8D0030080D00300F3
:1089E000FCD4030010D50300AC2C0020702B002019
:1089F00024D50300082B002000B593B001900BABE9
:108A000000221A605A609A60C3F80B2007AB00225C
:108A10001A605A609A60C3F80B201020FEF7BDFD63
:108A20000BAB03930F23049307AB05930F2306931C
:108A300003AB002219462D4811F090FE0F90102034
:108A4000FEF797FD0F9B002B01D0002349E0019B0F
:108A5000002B45D0264B1B685A1C25490A60019AF9
:108A600013600BF06FFA0246019B5A6000231193CA
:108A700033E0119B5A1C13465B00134448336B448C
:108A800013F82C3C1904119B5A1C13465B00134429
:108A9000013348336B4413F82C3C1B021943119BE0
:108AA0005A1C13465B001344023348336B4413F8DB
:108AB0002C3C0B431093109B03F40003002B03D0BA
:108AC000109B43F07F431093019B119A023210993F
:108AD00043F82210119B01331193119B032BC8DD26
:108AE0000123184613B05DF804FB00BFA4D50300B2
:108AF0008832002008B50220FEF715FD0320FEF79E
:108B000012FD1C20FEF70FFD1D20FEF70CFD1E20A0
:108B1000FEF709FD0220FEF740FD0320FEF73DFDB4
:108B20001C20FEF73AFD1D20FEF737FD1E20FEF744
:108B300034FD00BF08BD000000B583B0032115203F
:108B4000FEF702FD0A4A00210A480BF017F90190CE
:108B5000019B0093009B002B05D0074A40F2154172
:108B600000980AF01DFD00BF03B05DF804FB00BFD4
:108B7000FD8502007CD5030070D1030000B587B0ED
:108B80009DF80030012262F303038DF800309DF858
:108B90000030012262F307138DF800306B460A2281
:108BA0001B491846FEF73CFC0590059B0493049B6B
:108BB000002B05D0174A40F2234104980AF0F0FC3C
:108BC00001AB08220021184614F036F91023ADF845
:108BD00004303C23ADF806300023ADF808304FF4E4
:108BE000C873ADF80A3001AB1846FEF715FC0590C6
:108BF000059B0393039B002B05D0064A40F22D41B1
:108C000003980AF0CDFC00BF07B05DF804FB00BF7D
:108C10003CD5030070D1030000B585B00BF070F8AF
:108C20000390039B0293029B002B05D00D4A40F258
:108C3000334102980AF0B4FC0B4A01210B480BF0B7
:108C40009DF80390039B0193019B002B05D0054ADF
:108C500040F2364101980AF0A3FC00BF05B05DF870
:108C600004FB00BF70D10300C17A020078D5030075
:108C700000B585B001AB04220021184614F0DCF8E1
:108C80000B4B019301AB19460A4803F02DFB0390EF
:108C9000039B0293029B002B05D0074A40F24341FD
:108CA00002980AF07DFC00BF05B05DF804FB00BF30
:108CB0004D800200542B002070D1030000B58BB012
:108CC00001AB1C220021184614F0B6F800230193D2
:108CD0004FF4A03302934FF4F023039303238DF852
:108CE00010300023ADF8123001238DF8143000232A
:108CF00006930B4B079301AB184602F075F90990E8
:108D0000099B0893089B002B05D0064A40F2574167
:108D100008980AF045FC00BF0BB05DF804FB00BFEB
:108D2000A17A020070D1030000B587B013F04EF8AD
:108D30000590059B0493049B002B05D0164A40F236
:108D40005F4104980AF02CFC0023019301AB194603
:108D5000012013F0F3F80590059B0393039B002B70
:108D600005D00D4A40F2654103980AF019FC01ABA9
:108D7000184613F001FA0590059B0293029B002B05
:108D800005D0054A40F2694102980AF009FC00BF8B
:108D900007B05DF804FB00BF70D1030000B585B0DB
:108DA0001149124803F07CF80390039B0293029B45
:108DB000002B05D00E4A40F2744102980AF0F0FBF5
:108DC00040210A4803F097F80390039B0193019B0D
:108DD000002B05D0064A40F2774101980AF0E0FBEB
:108DE00000BF05B05DF804FB4D840200302E00206A
:108DF00070D1030000B5AFB001ABAC220021184622
:108E000014F01AF802238DF8043000238DF8063090
:108E100005238DF807300123ADF85030124B159320
:108E200001238DF880304023239344F25063249330
:108E30000E4B2A9301AB19460D4801F06FFD2D90A2
:108E40002D9B2C932C9B002B05D00A4A40F28F417E
:108E50002C980AF0A5FB0121054801F052FD00BF46
:108E60002FB05DF804FB00BF742B0020B584020016
:108E7000442E002070D1030000B583B04FF4804130
:108E8000002011F0F3FE0190019B0093009B002B4A
:108E900005D0064A40F2974100980AF081FB11F094
:108EA0007BFE00BF03B05DF804FB00BF70D1030080
:108EB00010B586B00F4B6C460FCB84E80F006946A7
:108EC000002300220C4811F087FA0590059B0493BB
:108ED000049B002B05D0094A40F2AC4104980AF0EB
:108EE0005FFB1020FEF71FFB1020FEF742FB00BFC8
:108EF00006B010BD48D50300A4D5030070D103000F
:108F000000B593B0FFF7B8FF04F04EFE1190119B2F
:108F10001093109B002B05D0614A40F2E441109859
:108F20000AF03EFBFFF7C4FFFFF776FEFFF704FEF3
:108F3000FFF7E0FD0020FEF7E1FB0022002100200A
:108F4000FEF706FC40F23332012156480AF028FAB7
:108F50001190119B0F930F9B002B05D0504A40F2AC
:108F6000F2410F980AF01CFB0AF0A2FA1190119B33
:108F70000E930E9B002B05D0494A40F2F5410E9806
:108F80000AF00EFB0EF070FF03F024FB0D900D9B1A
:108F90000C930C9B002B05D0414A40F2FA410C98EF
:108FA0000AF0FEFA404A414BD31ADB081B0443F097
:108FB00003033F49184612F02FF93E480BF0B6FC68
:108FC0000D900D9B0B930B9B002B05D0344A40F268
:108FD000FF410B980AF0E4FA3748FEF741FA0A908D
:108FE0000A980CF063F80D900D9B0993099B002BD8
:108FF00005D02B4A40F2035109980AF0D1FAFFF745
:1090000093FEFFF7BBFDFFF7C9FEFFF731FEFFF749
:10901000F1FEFFF753FE0BF037FD0D900D9B08930B
:10902000089B002B05D01E4A40F20D5108980AF00B
:10903000B7FA224B1B78DBB2002B2BD01F4B002240
:109040001A7001AB1846FFF7D7FC0346002B21D05E
:109050001B4B1B78012B1DD11923ADF80230194B86
:109060001B78002B08D0BDF802301A4601AB194618
:1090700011480DF0B3FE0DE0134B1B884FF6FF7245
:10908000934207D0104B1B880DF1020201A90F4833
:1090900003F0D0F9FFF7D6FAFFF759FAC9E700BF96
:1090A00070D10300782B0020B8D0030080D00300DB
:1090B00058D50300ACD5030080D5030079320020D9
:1090C00084320020AC2C0020702B0020542B002078
:1090D00084B001900B468DF8033013468DF80230B2
:1090E00000230393019B032B3CD89DF80230012BF6
:1090F0000BD19DF80330012B04D1019BDBB20E3361
:10910000DBB200E000238DF802309DF80330022B23
:109110000FD0022B23DC002B16D0012B1FD11449BA
:10912000019A13465B0013440B449DF802201A7009
:109130001AE00F49019A13465B0013440B440133B4
:109140009DF802201A700FE00949019A13465B004E
:1091500013440B4402339DF802201A7004E00723E5
:10916000039301E007230393039B184604B0704761
:109170009032002000B583B0012200210020FFF7CB
:10918000A7FF0190019B002B04D0019B072B01D06E
:10919000019B1CE0072202210120FFF799FF0190AB
:1091A000019B002B04D0019B072B01D0019B0EE0FB
:1091B000042202210020FFF78BFF0190019B002B6E
:1091C00004D0019B072B01D0019B00E0002318462F
:1091D00003B05DF804FB00B583B00122022100203A
:1091E000FFF776FF0190019B002B04D0019B072B1A
:1091F00001D0019B1CE0072202210120FFF768FF3C
:109200000190019B002B04D0019B072B01D0019BF7
:109210000EE00A2200210020FFF75AFF0190019B77
:10922000002B04D0019B072B01D0019B00E0002301
:10923000184603B05DF804FB00B585B001900091BD
:10924000019B1B88102B02D0112B18D02FE01A4B3A
:109250001B68002B0DD1FFF78DFF0390039B002BA4
:1092600007D0164B1B68002B03D0144B1B680398C8
:109270009847114B1B6801330F4A136017E00E4BE0
:109280001B68013B0C4A13600B4B1B68002B0DD174
:10929000FFF7A1FF0390039B002B07D0074B1B6830
:1092A000002B03D0054B1B680398984700BF00BFF5
:1092B00005B05DF804FB00BFA03200209C32002006
:1092C000BFF34F8F00BF064BDB6803F4E062044935
:1092D000044B1343CB60BFF34F8F00BF00BFFDE7CC
:1092E00000ED00E00400FA0582B0164B1B68019304
:1092F000154B1B680093019B082B1FD1009B052B6E
:109300001AD801A252F823F02193020025930200FB
:10931000299302002D93020031930200359302003D
:1093200001230CE001230AE0012308E0012306E009
:10933000012304E0012302E0012300E0002318469A
:1093400002B07047300100103401001082B0164B9B
:109350001B680193154B1B680093019B082B1FD1C1
:10936000009B052B1AD801A252F823F08593020026
:10937000899302008D93020091930200959302005D
:109380009993020001230CE001230AE0012308E085
:10939000012306E0012304E0012302E0012300E0B1
:1093A0000023184602B0704730010010340100104D
:1093B00082B0164B1B680193154B1B680093019BF1
:1093C000082B1FD1009B052B1AD801A252F823F0BD
:1093D000E9930200ED930200F1930200F59302007D
:1093E000F9930200FD93020001230CE000230AE040
:1093F000002308E0002306E0002304E0002302E04D
:10940000002300E00023184602B07047300100102E
:109410003401001082B0164B1B680193154B1B687A
:109420000093019B082B1FD1009B052B1AD801A28A
:1094300052F823F04D94020051940200559402001A
:10944000599402005D9402006194020001230CE033
:1094500000230AE0002308E0002306E0002304E0E4
:10946000002302E0002300E00023184602B070470A
:10947000300100103401001082B0164B1B680193BC
:10948000154B1B680093019B082B1FD1009B052BDC
:109490001AD801A252F823F0B1940200B594020048
:1094A000B9940200BD940200C1940200C594020068
:1094B00001230CE000230AE0002308E0002306E07B
:1094C000002304E0002302E0002300E0002318460C
:1094D00002B07047300100103401001082B0164B0A
:1094E0001B680193154B1B680093019B082B1FD130
:1094F000009B052B1AD801A252F823F01595020003
:10950000199502001D950200219502002595020083
:109510002995020001230CE000230AE0002308E063
:10952000002306E0002304E0002302E0002300E023
:109530000023184602B070473001001034010010BB
:1095400082B0164B1B680193154B1B680093019B5F
:10955000082B1FD1009B052B1AD801A252F823F02B
:10956000799502007D9502008195020085950200A3
:10957000899502008D95020001230CE001230AE089
:10958000012308E0012306E0012304E0012302E0B7
:10959000012300E00023184602B07047300100109C
:1095A0003401001082B0164B1B680193154B1B68E9
:1095B0000093019B082B1FD1009B052B1AD801A2F9
:1095C00052F823F0DD950200E1950200E5950200D6
:1095D000E9950200ED950200F195020000230CE0F0
:1095E00000230AE0002308E0002306E0012304E052
:1095F000012302E0012300E00023184602B0704777
:10960000300100103401001008B5FFF7CBFF03460E
:10961000002B07D04FF010234FF08042D3F80832D0
:10962000C2F8583500BF08BD00BF044BD3F8003462
:10963000002BFAD000BF00BF704700BF00E0014020
:1096400000B583B00190054A019BC2F80435FFF7CD
:10965000EBFF00BF03B05DF804FB00BF00E001407A
:10966000024B034A1A6000BF704700BF802B0020E6
:109670000090D00308B5FFF737FE0346002B0ED04D
:109680004FF080430022C3F80C214FF080430022AA
:10969000C3F810214FF080430022C3F83825FFF7AC
:1096A00055FE0346002B76D04FF08053734AD3F813
:1096B0000434C2F820354FF08053704AD3F8083490
:1096C000C2F824354FF080536C4AD3F80C34C2F8FA
:1096D00028354FF08053694AD3F81034C2F82C353E
:1096E0004FF08053654AD3F81434C2F830354FF048
:1096F0008053624AD3F81834C2F834354FF080539F
:109700005E4AD3F81C34C2F840354FF080535B4AB0
:10971000D3F82034C2F844354FF08053574AD3F879
:109720002434C2F848354FF08053544AD3F82834D3
:10973000C2F84C354FF08053504AD3F82C34C2F85D
:1097400050354FF080534D4AD3F83034C2F8543579
:109750004FF08053494AD3F83434C2F860354FF0A3
:109760008053464AD3F83834C2F864354FF08053FA
:10977000424AD3F83C34C2F868354FF080533F4A30
:10978000D3F84034C2F86C354FF080533B4AD3F8DD
:109790004434C2F87035FFF70BFE0346002B02D0AD
:1097A000374B384A1A60FFF735FE0346002B03D0CB
:1097B000354BFB22C3F81825FFF75EFE0346002B4E
:1097C0000AD0324B1B6823F00F02314B1B6803F0A9
:1097D0000F032E4913430B60FFF780FE0346002B57
:1097E00003D02C4B4FF400721A60FFF7A9FE03461A
:1097F000002B0DD04FF08043D3F8003403F0010369
:10980000002B05D04FF080436FF00102C3F8002415
:10981000214BD3F88830204A43F47003C2F88830D3
:10982000BFF34F8F00BFBFF36F8F00BFFFF7ECFE9A
:109830004FF01023D3F80032002B05DB4FF010233C
:10984000D3F80432002B15DA0120FFF7F9FE4FF0B0
:1098500010231222C3F80022FFF7E6FE4FF0102378
:109860001222C3F80422FFF7DFFE0020FFF7E8FE14
:10987000FFF726FDFFF7F4FE00BF08BD00C0004063
:109880008C5600404881030000F00040E40E004088
:10989000580200104096024000ED00E06DDF704776
:1098A00000BF184679DF704700BF18467DDF70475C
:1098B00000BF184664DF704700BF184682B00346F9
:1098C0000091ADF80630BDF80630DAB2009B1A7090
:1098D000BDF806301B0A9AB2009B0133D2B21A704F
:1098E0000223184602B0704700B589B00390029178
:1098F0001346ADF80630029B1B8803F10902BDF840
:1099000006309A4201D90C2353E004AB1846FFF706
:10991000C5FF0790079B0693069B002B01D0069B73
:1099200047E0029B1B881A46039B134408221A70C7
:10993000029B1B8801339AB2029B1A80029B1B88F0
:109940001A46039B13441B221A70029B1B88013387
:109950009AB2029B1A80029B1B881A46039B981896
:1099600004AB01330622194613F034FA029B1B881C
:1099700006339AB2029B1A809DF8103023F001033F
:10998000DBB2002B07D1029B1B881A46039B1344B2
:1099900000221A7006E0029B1B881A46039B1344A0
:1099A00001221A70029B1B8801339AB2029B1A8013
:1099B0000023184609B05DF804FB00B589B0039098
:1099C00002910192ADF80230039B1B78012B05D167
:1099D000039B5B78002B01D1072391E0019B1B883F
:1099E0009A1CBDF802309A420ED8039B1B78012BBB
:1099F0000CD1019B1B881A46039B5B7813449A1C6D
:109A0000BDF802309A4201D90C2379E0019B1B88F2
:109A1000BDF80220D31A9BB2023BADF81C30BDF852
:109A20001C30ADF81230019B1B880233029A13449C
:109A30000DF1120211461846FFF738FF0690069BFB
:109A40000593059B002B01D0059B59E0039B1B78D8
:109A5000022B06D0039B5B781A46BDF812309A425F
:109A600009D3BDF81230BDF81C209A4203D3092354
:109A70008DF81F3016E008238DF81F30039B1B78EC
:109A8000012B0BD1039B5B781A46BDF81C30934227
:109A900004D3039B5B78ADF8123003E0BDF81C30B3
:109AA000ADF81230BDF81230FE2B01D90C2327E09F
:109AB000BDF81230DAB2019B1B881946029B0B4499
:109AC0000132D2B21A70019B1B8801339AB2019BFA
:109AD0001A80019B1B881A46029B13449DF81F2085
:109AE0001A70019B1B8801339AB2019B1A80019B5B
:109AF0001A88BDF8123013449AB2019B1A800023D1
:109B0000184609B05DF804FB00B589B003900291D6
:109B10001346ADF80630029B1B881A1DBDF80630AF
:109B20009A4201D90C233AE00DF116031846FFF7CB
:109B3000B9FE0790079B0693069B002B01D0069B5E
:109B40002DE0029B1B881A46039B134403221A70C4
:109B5000029B1B8801339AB2029B1A80029B1B88CE
:109B60001A46039B134419221A70029B1B88013367
:109B70009AB2029B1A80BDF81620029B1B881946D8
:109B8000039B0B4419461046FFF798FE03461A46FE
:109B9000029B1B8813449AB2029B1A80002318462A
:109BA00009B05DF804FB84B0029101921A460346A5
:109BB0008DF80F301346ADF80C30019B1B88DA1C72
:109BC000BDF80C309A4201D90C2328E0019B1B8878
:109BD0001A46029B134402221A70019B1B88013310
:109BE0009AB2019B1A80019B1B881A46029B134460
:109BF00001221A70019B1B8801339AB2019B1A80C3
:109C0000019B1B881A46029B13449DF80F201A7073
:109C1000019B1B8801339AB2019B1A8000231846CE
:109C200004B0704784B0029101921A4603468DF841
:109C30000F301346ADF80C30019B1B88DA1CBDF8C1
:109C40000C309A4201D90C2328E0019B1B881A464C
:109C5000029B134402221A70019B1B8801339AB2A3
:109C6000019B1A80019B1B881A46029B13440A22FF
:109C70001A70019B1B8801339AB2019B1A80019BC9
:109C80001B881A46029B13449DF80F201A70019BF3
:109C90001B8801339AB2019B1A800023184604B036
:109CA000704700B58FB0039001930B468DF80B30D1
:109CB00013468DF80A3000238DF83330109B1B8833
:109CC000ADF8303000230D9370E0039B5A680D9B74
:109CD0009B001A4405AB106818600DF11B0105AB21
:109CE00000221846FFF7E6FD0A900A9B0993099B9C
:109CF000002B01D0099B7BE09DF81B309DF80A20CA
:109D00009A4250D19DF83330002B01D0002300E05F
:109D100002238DF82330109B1B881A469DF81B30B8
:109D20001A449DF823301A44BDF844309A4201DDAC
:109D30000C235DE09DF8333083F00103DBB2002B90
:109D400016D0109B1B8801339AB2109B1A80109B6F
:109D50001B881A46019B13449DF80B201A70109B18
:109D60001B8801339AB2109B1A8001238DF833307F
:109D7000109B1B881A46019B1A440DF11B0105AB71
:109D80001846FFF797FD0A900A9B0793079B002B45
:109D900001D0079B2CE0109B1B889DF81B201344CF
:109DA0009AB2109B1A800D9B01330D93039B1B8865
:109DB0001A460D9B934288DB9DF83330002B16D05A
:109DC000109B1A88BDF83030D31A9BB2013BADF816
:109DD0002E30BDF82E30FF2B01D90C2308E0BDF842
:109DE0003030019A1344BDF82E20D2B21A700023ED
:109DF00018460FB05DF804FB00B58BB005900393D7
:109E00000B468DF8133013468DF812309DF8131061
:109E1000BDF8343001930C9B0093039B02220598FC
:109E2000FFF73FFF0990099B0893089B002B01D087
:109E3000089B14E09DF81210BDF8343001930C9B80
:109E40000093039B10220598FFF72BFF0990099BB5
:109E50000793079B002B01D0079B00E000231846C7
:109E60000BB05DF804FB82B00190019B1B88052BB1
:109E70000AD9019B1B88B3F5486F07D9019B1B8842
:109E80004FF6FF72934201D0072325E0019B5B88C8
:109E9000052B0AD9019B5B88B3F5486F07D9019B55
:109EA0005B884FF6FF72934201D0072314E0019BB9
:109EB0001B884FF6FF7293420DD0019B5B884FF6D3
:109EC000FF72934207D0019B1A88019B5B889A42DC
:109ED00001D9072300E00023184602B0704700B5FF
:109EE00087B0039002910192ADF80230019B1B886C
:109EF0009A1DBDF802309A4201D90C234BE0039819
:109F0000FFF7B1FF0590059B0493049B002B01D044
:109F1000049B40E0019B1B881A46029B13440522C8
:109F20001A70019B1B8801339AB2019B1A80019B16
:109F30001B881A46029B134412221A70019B1B882D
:109F400001339AB2019B1A80039B1A88019B1B88DC
:109F50001946029B0B4419461046FFF7AFFC034617
:109F60001A46019B1B8813449AB2019B1A80039BDB
:109F70005A88019B1B881946029B0B4419461046C0
:109F8000FFF79CFC03461A46019B1B8813449AB2B8
:109F9000019B1A800023184607B05DF804FB00B54A
:109FA00087B0039002910192ADF80230039B9B8829
:109FB00002330593019B1B881A46059B13449A1C88
:109FC000BDF802309A4201D90C2353E0059BFE2BC9
:109FD00001D90C234EE0059BDAB2019B1B88194680
:109FE000029B0B440132D2B21A70019B1B880133D1
:109FF0009AB2019B1A80019B1B881A46029B13444C
:10A00000FF221A70019B1B8801339AB2019B1A80B0
:10A01000039B1A88019B1B881946029B0B44194617
:10A020001046FFF74BFC03461A46019B1B8813445E
:10A030009AB2019B1A80039B9B88002B19D0039B2B
:10A040009B68002B01D1072314E0019B1B881A4653
:10A05000029B9818039B9968039B9B881A4612F0F1
:10A06000B9FE019B1A88039B9B8813449AB2019BFB
:10A070001A800023184607B05DF804FB00B589B0CC
:10A08000039002910192ADF80230039B9B6A002B72
:10A0900001D1072371E000238DF81F3065E0039B99
:10A0A000996A9DF81F2013465B0013449B000B44E4
:10A0B0000693069B9B8802330593059BFE2B01D9D3
:10A0C0000C235AE0059BDAB2019B1B881946029BC0
:10A0D0000B440132D2B21A70019B1B8801339AB231
:10A0E000019B1A80019B1B881A46029B134416226F
:10A0F0001A70019B1B8801339AB2019B1A80069B40
:10A100001A88019B1B881946029B0B44194610466E
:10A11000FFF7D4FB03461A46019B1B8813449AB2EF
:10A12000019B1A80069B9B88002B19D0069B9B687D
:10A13000002B01D1072320E0019B1B881A46029BBC
:10A140009818069B9968069B9B881A4612F042FE57
:10A15000019B1A88069B9B8813449AB2019B1A8024
:10A160009DF81F3001338DF81F30039B93F82C307E
:10A170009DF81F209A4292D30023184609B05DF83B
:10A1800004FB00B595B0059004910392002313934E
:10A19000039B1B88ADF84A30039B00221A80059B65
:10A1A00093F82D30002B0ED0BDF84A301A46039993
:10A1B0000498FFF799FB1390139B1193119B002BAD
:10A1C00001D0119BD8E0059B9B78002B0ED0BDF8E9
:10A1D0004A301A4603990498FFF796FC1390139B94
:10A1E0001093109B002B01D0109BC5E0059BDB78E2
:10A1F000002B10D0059BDB7858B2BDF84A30039A8B
:10A200000499FFF7D0FC1390139B0F930F9B002B27
:10A2100001D00F9BB0E0059B5B68002B11D0059B24
:10A220005B6893F90000BDF84A30039A0499FFF780
:10A23000F9FC1390139B0E930E9B002B01D00E9BE9
:10A240009AE0059B1B89002B14D0059B03F10800A5
:10A25000BDF84A300193039B0093049B0622022120
:10A26000FFF7CAFD1390139B0D930D9B002B01D09C
:10A270000D9B81E0059B1B8A002B14D0059B03F1ED
:10A280001000BDF84A300193039B0093049B072202
:10A290000321FFF7B1FD1390139B0C930C9B002B34
:10A2A00001D00C9B68E0059B1B8B002B14D0059BF9
:10A2B00003F11800BDF84A300193039B0093049BFF
:10A2C00015221421FFF798FD1390139B0B930B9B02
:10A2D000002B01D00B9B4FE0059B1B6A002B0FD07E
:10A2E000059B186ABDF84A30039A0499FFF7F7FDF9
:10A2F0001390139B0A930A9B002B01D00A9B3BE00F
:10A30000059B5B6A002B0FD0059B586ABDF84A304D
:10A31000039A0499FFF743FE1390139B0993099B3B
:10A32000002B01D0099B27E0059B93F82C30002BD4
:10A330000ED0BDF84A30039A04990598FFF79EFEA7
:10A340001390139B0893089B002B01D0089B13E0EC
:10A35000059B1B78002B0ED0BDF84A30039A049958
:10A360000598FFF72AFB1390139B0793079B002B7D
:10A3700001D0079B00E0139B184615B05DF804FB65
:10A3800086B0039001921A460B46ADF80A30134688
:10A390008DF80930039B002B02D0019B002B01D1CB
:10A3A00000235BE00023ADF816300CE0BDF816305A
:10A3B000039A13441B781A46BDF8163013449BB217
:10A3C0000133ADF81630BDF816305A1CBDF80A300E
:10A3D0009A420FDA019B1B88BDF816209A42E5D3FA
:10A3E000BDF816300133039A13441B789DF80920F9
:10A3F0009A42DBD1BDF81620BDF80A309A4201D34B
:10A4000000232BE0BDF816300233ADF81430BDF850
:10A410001630039A13441B78002B07D0BDF8163072
:10A42000039A13441B78013B9BB200E00023ADF874
:10A430001230BDF81230002B08D0BDF81420BDF842
:10A4400012301A44BDF80A309A4201DD002305E0BB
:10A45000019BBDF814201A80BDF81230184606B0D2
:10A46000704700B585B001900B46ADF80230134639
:10A470008DF801300023ADF80C309DF8013003AAAF
:10A48000BDF802100198FFF77BFF0346ADF80E30D0
:10A49000BDF80E30002B01D1002304E0BDF80C30D4
:10A4A0001A46019B1344184605B05DF804FB72DFA1
:10A4B000704700BF184673DF704700BF184682B070
:10A4C0000190019B93F83034184602B0704784B075
:10A4D0000190002303930AE0019A039B13441B7825
:10A4E000002B01D0012306E0039B01330393039B60
:10A4F000052BF1D90023184604B0704782B00346FB
:10A500008DF807309DF807305A1C074B83FB021368
:10A510005910D317C91A0B469B000B44D11ACBB262
:10A52000184602B0704700BF6766666682B0019049
:10A530000091009BDB7B012B04D1009B9A88019B3F
:10A54000A3F8242400BF02B0704700B585B0019085
:10A550000091019B002283F82E24009B9A88019B86
:10A56000B3F824349A4216D1019B1B7983F001037E
:10A57000DBB2002B0FD00121019800F0ABFA039061
:10A58000039B002B07D0019B9B6B002B03D0019BEF
:10A590009B6B0398984700BF05B05DF804FB00B5BE
:10A5A00085B001900091009B1B88262B1ED1009B3B
:10A5B0001B7A012B03D0009B1B7A022B17D1019B26
:10A5C0009B781846FFF79AFF03461946019800F05A
:10A5D00081FA0390039B002B09D0019B9B6B002BFE
:10A5E00005D0019B9B6B0398984700E000BF05B026
:10A5F0005DF804FB00B585B001900B468DF8033083
:10A60000019B03F227431846FFF761FF03468DF8CD
:10A610000F309DF80330013B032B33D801A252F8D1
:10A6200023F000BF35A6020059A602006DA6020065
:10A6300079A60200019B9B79002B0DD0019B93F81A
:10A64000243083F00103DBB2002B05D09DF80F30DE
:10A65000002B01D0012316E0019BDB79002B05D0F4
:10A660009DF80F30002B01D002230CE0019B1B7AD8
:10A67000002B01D0032306E0019B5B7A002B01D065
:10A68000042300E00023184605B05DF804FB00BF7A
:10A6900082B001900091019B012283F83120019B3F
:10A6A0000022C3F82024019B03F22642009B5A603B
:10A6B000009B00229A60009B02221A70009B80225D
:10A6C0009A810023184602B0704782B00190009131
:10A6D000019B022283F83120019B93F82430002B48
:10A6E00003D0009B07221A7002E0009B03221A701D
:10A6F000019B1B699AB2009B9A81019B0022C3F8BF
:10A700002024019B03F22642009B5A60019BDA68D9
:10A71000009B9A600023184602B0704700B583B0D2
:10A720000190019B5B79002B0FD0019B93F82E3495
:10A7300083F00103DBB2002B07D00198FFF7BFFEC7
:10A740000346002B01D0012300E0002303F00103A6
:10A75000DBB2184603B05DF804FB00B585B001908C
:10A760000B468DF80330019BD3F81004019BB3F81E
:10A77000143401221946FFF774FE0390039B002B4B
:10A7800003D0039B9DF803201A70019B03F1540032
:10A79000019B03F58261019B3C331A46FFF787FE5C
:10A7A0000346184605B05DF804FB00B585B001907E
:10A7B0000091019B5A69009B9A60019B9B699AB228
:10A7C000009B9A81019B93F82430002B04D0019BBD
:10A7D000062283F83C2003E0019B012283F83C2001
:10A7E0000198FFF79BFF0346002B13D0009B02222A
:10A7F0001A7504210198FFF7B0FF0390039B0293A1
:10A80000029B002B01D0029B0FE0019B052283F8E5
:10A81000312003E0019B032283F83120019B03F5E3
:10A820008262019BC3F820240023184605B05DF81E
:10A8300004FB00B585B001900091019BDA69009B93
:10A840009A60019B1B6A9AB2009B9A81019B93F8C4
:10A850002430002B04D0019B062283F83C2003E027
:10A86000019B012283F83C200198FFF757FF034624
:10A87000002B13D0009B02221A7504210198FFF7C8
:10A880006CFF0390039B0293029B002B01D0029B61
:10A890000FE0019B062283F8312003E0019B042294
:10A8A00083F83120019B03F58262019BC3F82024C9
:10A8B0000023184605B05DF804FB82B00190019BAF
:10A8C0009B78002B06D0019B93F82030002B01D001
:10A8D000002300E00123184602B0704784B00190C5
:10A8E000019B93F82430002B03D0EE23ADF80E30FB
:10A8F00002E01F23ADF80E30BDF80E30184604B04C
:10A90000704782B001900B468DF80330019B9DF893
:10A91000032083F8302000BF02B0704730B587B005
:10A9200001900091009B002B02D0019B002B01D1D4
:10A930000E23B8E0009B78331846FFF7BEFF0346AE
:10A9400083F00103DBB2002B01D00723ABE0019BB6
:10A9500000229A70019A009B141D03F178050FCD17
:10A960000FC40FCD0FC495E8070084E80700019BD2
:10A97000002283F83020009BD3F8A420019B5A6367
:10A98000009BD3F8A820019B9A63019B4FF6FF72AE
:10A99000A3F82424019B03F58262019BC3F82024C1
:10A9A000019B03F2264307220021184612F044FAC5
:10A9B000019B1B7883F00103DBB2002B03D0019BCA
:10A9C000FF2283F85420019B03F15502019BC3F839
:10A9D00010240198FFF782FF03461A46019BA3F853
:10A9E00014240098019B03F15501019B03F21443C9
:10A9F0001A46FFF7C6FB0590059B0493049B002BAA
:10AA000001D0049B4FE0019B03F23122019BC3F86C
:10AA100018240198FFF762FF03461A46019BA3F82A
:10AA20001C24009B03F13C00019BD3F81814019BEC
:10AA300003F21C431A46FFF7A4FB0590059B039302
:10AA4000039B002B01D0039B2DE0019B012283F887
:10AA50005120019B9B699AB2019BA3F84820019B5E
:10AA6000012283F83C20019B00221A64019B0022F2
:10AA700083F85020019B5A69019B5A64019B03F1A2
:10AA80005400019B3C331A460021FFF710FD05904E
:10AA9000059B0293029B002B01D0029B03E0019BCC
:10AAA00001221A70059B184607B030BD82B0019094
:10AAB000019B1B68012B07D0019B1B68022B03D055
:10AAC000019B1B68042B01D1012300E000231846E1
:10AAD00002B0704700B585B001900B468DF8033089
:10AAE000019B1B7883F00103DBB2002B01D008230C
:10AAF00009E1019B9DF803209A70019B03F2264314
:10AB000007220021184612F097F9019B9B79002B30
:10AB100003D0019B9B78012B0FD0019BDB79002B8D
:10AB200003D0019B9B78012B07D0019BDB79002B85
:10AB300014D0019B9B78022B10D1019B5B6B002BE7
:10AB400008D0019B012283F82D24019B5B6B082018
:10AB5000984703E0019B002283F82D249DF80330E1
:10AB600019460198FFF746FD03461A46019B9A7065
:10AB7000019B5B6B002B20D0019B9B78032B03D0A8
:10AB8000019B9B78042B18D1019B5B79002B14D07F
:10AB9000019B93F82E3483F00103DBB2002B0CD021
:10ABA000019B002283F83024019B012283F82F248B
:10ABB000019B5B6B0720984703E0019B002283F811
:10ABC0002F24019B3C3318220021184612F034F93F
:10ABD000019B012283F83C20019B2C331846FFF790
:10ABE00065FF0346002B06D0019BDB6ADAB2019BAE
:10ABF00083F8512003E0019B012283F85120019B3F
:10AC000093F82430002B12D0019B28331846FFF70D
:10AC10004DFF0346002B06D0019B9B6ADAB2019BD5
:10AC200083F8522003E0019B012283F85220019B0C
:10AC3000002283F85020019B9B78042B31D801A27D
:10AC400052F823F099AC020059AC020069AC020042
:10AC500079AC020089AC0200019B3C331946019893
:10AC6000FFF716FD03901DE0019B3C331946019848
:10AC7000FFF72BFD039015E0019B3C33194601982B
:10AC8000FFF793FD03900DE0019B3C3319460198BB
:10AC9000FFF7CFFD039005E0019B002283F83120F0
:10ACA00000E000BF019B9B78002B20D0019B03F1AB
:10ACB0005400019BD3F82014019B3C331A46FFF744
:10ACC000F6FB0390039B002B01D0039B1BE0019B31
:10ACD00093F85420019B93F8303019461046FFF743
:10ACE000EAFB0390039B002B01D0039B0BE0019B2D
:10ACF0005B6B002B06D0019B5B6B019A92F83120B5
:10AD0000104698470023184605B05DF804FB00BFC5
:10AD100000B585B001900091009B0393019B1B88B7
:10AD2000262B10D0262B13DC102B02D0112B05D094
:10AD30000EE001990398FFF7F9FB0AE001990398E7
:10AD4000FFF703FC05E001990398FFF728FC00E0FA
:10AD500000BF00BF05B05DF804FB75DF704700BFA2
:10AD6000184676DF704700BF18467ADF704700BF8D
:10AD700018467BDF704700BF1846000084B00346CA
:10AD8000ADF806300023039316E00F49039A1346EB
:10AD90009B0013449B000B441B88BDF806209A427D
:10ADA00007D1039A13469B0013449B00064A1344A1
:10ADB00006E0039B01330393039B002BE5D00023A4
:10ADC000184604B0704700BFC832002082B001901E
:10ADD0000B46ADF80230019BBDF802201A80019BA2
:10ADE00000221A72019B054903F10A020B4603CBAC
:10ADF0001060516000BF02B0704700BFF832002001
:10AE000082B00190019B4FF6FF721A8000BF02B022
:10AE1000704788B00390029111461A460B46ADF870
:10AE200006301346ADF80430039B9B881A46BDF8E4
:10AE3000063013440793039B9B881946039B9B880A
:10AE4000BDF80620934228BF13469BB2CB1A069347
:10AE5000039BDB881A46BDF8043013440593039B1B
:10AE6000DB881946039BDB88BDF80420934228BF8A
:10AE700013469BB2CB1A0493029B5A88039B1B88F0
:10AE80009A4205D3029B5A88039B5B889A4201D958
:10AE900000231CE0029B9B881A46069B934205D820
:10AEA000029B9B881A46079B934201D200230EE027
:10AEB000029BDB881A46049B934205D8029BDB88E1
:10AEC0001A46059B934201D2002300E00123184655
:10AED00008B0704700B583B00190064B9B69002B0A
:10AEE00003D0044B9B690198984700BF03B05DF8FD
:10AEF00004FB00BFDC32002000B585B003460091A2
:10AF0000ADF80630BDF8063000991846FFF725FF6A
:10AF10000390039B002B05D0039B112B02D00398B9
:10AF2000FFF7D8FF039B002B0CBF01230023DBB2EC
:10AF3000184605B05DF804FB00B589B00190019B8F
:10AF40000793079B9BB21846FFF718FF0690069BD6
:10AF5000002B42D0069B1A7A224B1B7B9A4215D2B9
:10AF6000079B9AB2069B0A3319461046FFF7C4FFA7
:10AF700003468DF813309DF81330002B2DD0069B1F
:10AF80001B7A0133DAB2069B1A7226E0069B002276
:10AF90001A72144B1B7C002B0FD0079B9BB23B21DA
:10AFA0001846FFF7DEFE0590059B002B05D0059B9C
:10AFB000082B02D00598FFF78DFF0A4B5B69002B29
:10AFC0000BD000238DF80C30079B9BB2ADF80E30F0
:10AFD000044B5B6903AA1046984700BF09B05DF8AF
:10AFE00004FB00BFDC32002030B587B00190019B2C
:10AFF000002B01D10E2353E02B4A019B14461D4622
:10B000000FCD0FC495E8070084E80700264B274AB8
:10B010001A60019B1B68002B11D0019B1B6818460E
:10B02000FFF7A3FE0490049B002B01D0049B37E0A4
:10B03000019B1A681D4B1068516803C308E01B4848
:10B04000FFF797FE0490049B002B01D0049B27E0A0
:10B050000023059320E0059A13469B0013449B00B0
:10B06000134A134403930398FFF7CAFE059B5B0141
:10B07000104A1A44039B5A60039B04330E4A002172
:10B08000184608F07BFE0490049B002B01D003239C
:10B0900006E0059B01330593059B002BDBD00023C5
:10B0A000184607B030BD00BFDC320020F832002067
:10B0B000C8320020A832002039AF020000B587B0A6
:10B0C00003460091ADF80630009B5B7A002B1AD145
:10B0D000009B1B7A002B03D1164B5B68059302E0A3
:10B0E000144B9B680593009B5B68BDF8062005998F
:10B0F000184608F07DFE0490049B002B16D004989F
:10B10000FFF7E8FE12E0009B00221A72094B5B6910
:10B11000002B0BD001238DF80C30BDF80630ADF8B4
:10B120000E30044B5B6903AA1046984700BF07B076
:10B130005DF804FBDC32002000B585B00190019B76
:10B14000DB7B8DF80F30019B9B88ADF80C309DF8B0
:10B150000F30012B2CD14FF6FF70FFF70FFE02903E
:10B16000029B002B03D10420FFF7B4FE21E0BDF8C1
:10B170000C3019460298FFF729FE029B03F10A00E2
:10B18000019B03F110014FF6FF7340F2F312FFF73A
:10B1900040FE03461A46029B5A72074BDB89002B7E
:10B1A00007D1BDF80C3002991846FFF787FF00E081
:10B1B00000BF05B05DF804FBDC32002000B587B0AD
:10B1C0000190019B9B88ADF81630BDF816301846EB
:10B1D000FFF7D4FD0490049B002B0ED0049B5B680A
:10B1E000184608F05DFE0390039B002B02D00398E5
:10B1F000FFF770FE0498FFF703FE00BF07B05DF88D
:10B2000004FB000000B587B00190019B0633059355
:10B21000059B1A88194BDB899A422BD1059B5B89C8
:10B22000022B27D1019B9B88ADF81230BDF812305C
:10B230001846FFF7A3FD0390039B002B1AD0059B34
:10B240000C33184600F071FA0346002B06D0BDF807
:10B25000123003991846FFF731FF0BE0039B5B6840
:10B26000184608F01DFE0290029B002B02D00298A7
:10B27000FFF730FE00BF07B05DF804FBDC320020B2
:10B2800000B585B00190019B9B88ADF80E30BDF8EC
:10B290000E301846FFF772FD0290029B002B15D06E
:10B2A000029B03F10A00019B03F108014FF6FF73B3
:10B2B00040F2F312FFF7ADFD03461A46029B5A72A5
:10B2C000BDF80E3002991846FFF7F8FE00BF05B032
:10B2D0005DF804FB00B583B001900091019B1B88D1
:10B2E000502B12D0502B18DC122B12D0122B14DC46
:10B2F000102B02D0112B04D00FE00198FFF71CFF98
:10B300000CE00198FFF75AFF08E00198FFF77AFF79
:10B3100004E00198FFF7B4FF00E000BF00BF03B0F6
:10B320005DF804FB30B58FB00190009100230293CB
:10B33000009B002B1AD000230D9314E06B460D994F
:10B3400018460DF0A4FD0346002B09D0029B5A1CA1
:10B3500002920D9A92B25B0038336B4423F82C2C86
:10B360000D9B01330D930D9B132BE7D9019B1D46BC
:10B3700002AC0FCC0FC50FCC0FC594E8070085E8D1
:10B38000070001980FB030BD00B583B00346ADF89B
:10B390000630BDF80630132B01D900230CE0BDF8B0
:10B3A0000630194606480DF041FDBDF80630194635
:10B3B00004480DF03BFD0123184603B05DF804FB83
:10B3C000083300200433002000B585B00346ADF8F3
:10B3D0000630002303930DE0039B9B00094A1344AE
:10B3E0000433BDF80620114618460DF037FD039BC7
:10B3F00001330393039B1D2BEED900BF00BF05B0A3
:10B400005DF804FB0033002000B583B00346ADF8BF
:10B410000630BDF80630194603480DF01FFD00BF89
:10B4200003B05DF804FB00BF0833002030B59BB0CB
:10B43000184B9B68DB431893164B5A6818AB1146A0
:10B4400018460DF083FD189A6B4611461846FFF713
:10B4500069FF0DAC6D460FCD0FC40FCD0FC495E83D
:10B46000070084E80700002319930BE0199B5B0099
:10B4700068336B4433F8303C1846FFF7A5FF199B3F
:10B48000013319930D9B199A9A42EFD300BF00BF65
:10B490001BB030BD0033002000B583B001900B46D7
:10B4A000ADF8023013468DF801309DF80130002BC5
:10B4B00006D0BDF80230194601980DF0B7FC05E042
:10B4C000BDF80230194601980DF0C8FC00BF03B06A
:10B4D0005DF804FB00B585B001900091019B9B884D
:10B4E000ADF80E30019B1B88103B0A2B00F28380C5
:10B4F00001A252F823F000BF25B5020061B5020099
:10B50000F7B50200F7B50200F7B50200F7B5020083
:10B51000F7B50200F7B50200F7B50200CBB502009F
:10B520006DB50200FFF782FFBDF80E301846FFF739
:10B530002BFF034683F00103DBB2002B05D0304A1A
:10B54000F021042008F02CF852E0019BDB7B022B59
:10B550004ED1BDF80E3019462A480DF067FC47E081
:10B56000BDF80E301846FFF74FFF44E0019B1B7AF1
:10B57000C3F30313DBB28DF80D309DF80D30032BB0
:10B580008CBF01230023DAB2BDF80E3019461E48E5
:10B59000FFF782FF9DF80D30022B8CBF01230023A3
:10B5A000DAB2BDF80E3019461848FFF775FF9DF85E
:10B5B0000D30012B8CBF01230023DAB2BDF80E3011
:10B5C00019461348FFF768FF15E0019B1B7A002B13
:10B5D00010D1019B5B7AC3F3C0038DF80C309DF84A
:10B5E0000C20BDF80E3019460748FFF755FF01E063
:10B5F00000BF00E000BF00BF05B05DF804FB00BF66
:10B60000B8D503000C330020183300201433002079
:10B610001033002000B583B00346ADF80630BDF806
:10B620000630132B01D9002306E0BDF80630194679
:10B6300003480DF02CFC0346184603B05DF804FBEC
:10B640000433002000B583B00346ADF80630BDF8E2
:10B6500006301846FFF7DEFF0346002B02D0BDF888
:10B66000063000E01423184603B05DF804FB00B573
:10B6700087B003900B460192ADF80A30019B002B76
:10B6800001D10E2338E0019B00221A60039B002B9E
:10B6900001D10E2330E0039B1B68002B01D10E2348
:10B6A0002AE0039BDB8803F003039BB2002B01D04D
:10B6B000072321E0BDF80A301846FFF7C3FF034611
:10B6C0008DF817309DF81730142B01D1052313E0A6
:10B6D000039B1B799DF817209A4201D304230BE0AA
:10B6E000039B1B689DF817200399C98801FB02F290
:10B6F0001A44019B1A600023184607B05DF804FB4A
:10B7000082B00190019B1B781AB2019B01331B7818
:10B710001BB21B021BB213431BB29BB2184602B0F2
:10B720007047AADF704700BF184600B585B001908A
:10B730000198FFF7E5FF0346ADF80E30BDF80E3077
:10B7400003F00103DBB2184605B05DF804FB00000E
:10B7500082B0034600918DF80730009A137823F0E9
:10B760000F031370009A137823F0F00313709DF801
:10B770000730052B5BD801A252F823F095B70200E1
:10B78000ABB70200C5B70200DFB70200F9B702008D
:10B7900013B80200009A137823F00F031370009A75
:10B7A000137823F0F003137040E0009A137801211E
:10B7B00061F303031370009A1378012161F30713F7
:10B7C000137033E0009A1378012161F303031370BF
:10B7D000009A1378022161F30713137026E0009A90
:10B7E0001378012161F303031370009A1378032186
:10B7F00061F30713137019E0009A1378022161F3C3
:10B8000003031370009A1378012161F30713137077
:10B810000CE0009A1378022161F303031370009A7D
:10B820001378022161F30713137000BF00BF00BF3C
:10B8300002B0704700B595B0034602910192ADF891
:10B840000E30029B9B78002B03D101238DF81E3014
:10B8500003E0029B9B788DF81E30029B1B88ADF89D
:10B860001C3006AB03220021184611F0E5FA029BBA
:10B870005B7C06AA11461846FFF76AFF029B9A7C7A
:10B8800006AB013319461046FFF762FF029BDA7BD5
:10B890009DF81A3062F3C3038DF81A30029B1A7CAC
:10B8A0009DF81A3062F304138DF81A30029B1A7B4C
:10B8B0009DF81A3062F300038DF81A30029B1B7D4D
:10B8C000002B01D0022200E001229DF81A3062F321
:10B8D00042038DF81A300DAB1C220021184611F0DE
:10B8E000ABFA029B5B7B03F01003DBB2002B06D1AB
:10B8F000029B5B7B03F02003DBB2002B24D004AB64
:10B9000003220021184611F097FA029BDA7C04AB5F
:10B91000013319461046FFF71BFF9DF81030012236
:10B9200062F303038DF810309DF81030012262F3AA
:10B9300007138DF810309DF81230012262F3420394
:10B940008DF8123004AB1293029B5B7B8DF8343080
:10B95000029B9B7B8DF8353008AB142200211846E2
:10B9600011F06AFA07AB089306AB0993029B9B8818
:10B97000ADF82C30029B9B68002B06D0029BDB8825
:10B98000ADF82830029B9B680C93029B9B69002BAF
:10B990004FD005AB03220021184611F04DFA029B4F
:10B9A0009B691B88ADF83C30029B9B695B88ADF8B6
:10B9B0003E30029B9B695B680E9305AB1193029B23
:10B9C0009B691B7B05AA11461846FFF7C1FE029B27
:10B9D0009B695A7B05AB013319461046FFF7B8FE49
:10B9E000029B9B699A7A9DF8163062F3C3038DF827
:10B9F0001630029B9B69DA7A9DF8163062F30413C5
:10BA00008DF81630029B9B691A7A9DF8163062F306
:10BA100000038DF81630029B9B699B7B002B01D0A5
:10BA2000022200E001229DF8163062F342038DF8F5
:10BA30001630029BDB69002B02D0029BDB6910935E
:10BA400008AA0DA9BDF80E00019BFFF76AFE034688
:10BA5000184615B05DF804FB90DF704700BF18462C
:10BA6000A5DF704700BF1846B5DF704700BF184616
:10BA700082B00190019BF7221A80019B17225A8005
:10BA8000019B00221A71019B00225A71019B1B220B
:10BA90009A71019B1B22DA7100BF02B0704700004F
:10BAA00030B589B003460A46ADF806301346ADF806
:10BAB0000430BDF80430ADF81430BDF80430ADF8F2
:10BAC00016300023ADF818300023ADF81A3003AB60
:10BAD00000221A609A8003AA05A9BDF8063018460C
:10BAE000FFF7BAFF0790079B002B39D01E4A1F4B68
:10BAF000D31ADB081B0443F00104BDF80650079875
:10BB00000EF016FA03462A46194920460FF0A3FB09
:10BB1000BDF80C30002B03D1BDF80E30002B0ED039
:10BB2000114A124BD31ADB081B0443F00100BDF885
:10BB30000C301A46BDF80E300E490FF08CFBBDF8E4
:10BB40001030002B0CD0084A084BD31ADB081B041A
:10BB500043F00103BDF81020074918460FF06AFBB7
:10BB6000079B184609B030BD00D1030080D0030008
:10BB700024D6030070D60300B0D6030010B586B0FB
:10BB800001900091009B9B88ADF80E30BDF80E30FF
:10BB9000DB00019A134406330593019B1A79059B38
:10BBA0009A71009BDB7B012B02D0022B05D009E0B0
:10BBB000019B1A88059B1A8004E0019B5A88059B0B
:10BBC0001A8000BF059B1A88059B5B889A4226D97C
:10BBD000059B1A88BDF80E3011461846FFF740FF46
:10BBE0000490049B002B03D1059B01225A7116E09F
:10BBF000049B112B03D1059B01221A710FE0114AFE
:10BC0000114BD31ADB081B0443F0010404980EF017
:10BC10008FF903461A460D4920460FF00BFB059B92
:10BC20009A79059BDB799A4208D9059B9B791A463C
:10BC3000BDF80E3011461846FFF732FF00BF06B0C0
:10BC400010BD00BF00D1030080D0030008D703005F
:10BC500000B583B001900091009B9B88DB00019AA6
:10BC6000134406331846FFF703FF00BF03B05DF827
:10BC700004FB00B587B001900091009B9B88ADF854
:10BC80001630009B5B89ADF81430BDF81630DB0030
:10BC9000019A134406330493049B1B88BDF81420B7
:10BCA000934228BF13469AB2049B5A80049B5B8838
:10BCB000172B38BF17239AB2049B5A80019B1B692C
:10BCC000002B15D0049B5B79002B11D040F6772315
:10BCD000ADF80830BDF81630ADF80A30049B5B882B
:10BCE000ADF80C30019B1B6902AA114601989847D8
:10BCF000049B00225A71049B00221A7100BF07B0F6
:10BD00005DF804FB10B588B001900091009B9B8802
:10BD1000ADF81A30009BDB88ADF81830BDF81A304A
:10BD2000DB00019A134406330593BDF81830172B36
:10BD300038BF1723ADF81830059B1B88BDF81820B5
:10BD4000934228BF13469AB2059B5A80059B002256
:10BD50001A71059B1A88BDF81A3011461846FFF76C
:10BD600083FE0790079B002B0FD0174A174BD31A5F
:10BD7000DB081B0443F0010407980EF0D9F80346D2
:10BD80001A46134920460FF055FA059B5B79002BA4
:10BD900016D1019B1B69002B13D040F67723ADF819
:10BDA0000C30BDF81A30ADF80E30059B5B88ADF84D
:10BDB0001030019B1B6903AA11460198984700E0C7
:10BDC00000BF08B010BD00BF00D1030080D0030049
:10BDD0003CD7030030B591B001900091009B04ACBA
:10BDE0001D1D0FCD0FC40FCD0FC495E8070084E8CB
:10BDF0000700BDF81030ADF83E30BDF81420BDF896
:10BE00003E30D1B2019ADB0013440A465A73019BBB
:10BE10001B69002B19D002AB00221A609A804DF6E4
:10BE20007A23ADF80830BDF83E30ADF80A30BDF8E1
:10BE30003E30019ADB0013445B7B8DF80C30019B94
:10BE40001B6902AA11460198984700BF11B030BD86
:10BE500000B587B001900091009B04330593059BCA
:10BE60001B88DB00019A134406330493059B9B88CF
:10BE70008DF80F30049B9B799DF80F20934228BFCB
:10BE800013468DF80E30059B1B889DF80E2092B24C
:10BE900011461846FFF704FE00BF07B05DF804FB2B
:10BEA00000B585B001900091019B002B01D10E23BC
:10BEB0001DE0019B009A1A61019BF7221A80019BE9
:10BEC000F7225A80019B1B221A71002303930AE078
:10BED000039BDB00019A134406331846FFF7C8FDA5
:10BEE000039B01330393039B002BF1D000231846DF
:10BEF00005B05DF804FB82B001900B46ADF802304E
:10BF0000019B002B01D10E230EE0BDF80230162B51
:10BF100003D9BDF80230F72B01D9072304E0019BB8
:10BF2000BDF802201A800023184602B070470000B6
:10BF300010B586B001900091009B0593019B9B88F2
:10BF4000ADF81230BDF81230002B40F09880019B04
:10BF50001B88552B48D0552B55DC242B32DC102B5D
:10BF600051DB103B142B4ED801A252F823F000BF36
:10BF7000CBBF0200D5BF020007C0020007C002000D
:10BF800007C0020007C0020007C0020007C002008D
:10BF900007C0020007C0020007C0020007C002007D
:10BFA00007C0020007C0020007C0020007C002006D
:10BFB00007C0020007C0020007C00200FDBF020068
:10BFC000F3BF02003A2B0AD01DE001990598FFF754
:10BFD000D5FD19E001990598FFF73AFE14E00199A3
:10BFE0000598FFF746FE0FE001990598FFF78AFED6
:10BFF0000AE001990598FFF7EDFE05E00199059823
:10C00000FFF726FF00E000BFBDF81230059ADB0005
:10C0100013449B7A002B33D0BDF81230059ADB0015
:10C020001344DA88BDF8123011461846FFF718FDA0
:10C030000390039B002B0ED1BDF81230059ADB0054
:10C04000134400229A72BDF81230059ADB001344A3
:10C050000122DA7214E0039B112B11D0094A0A4B1A
:10C06000D31ADB081B0443F0010403980DF060FFB2
:10C0700003461A46054920460FF0DCF800E000BFF1
:10C0800006B010BD00D1030080D0030008D7030024
:10C09000A8DF704700BF1846ADDF704700BF1846E5
:10C0A000AEDF704700BF184662DF704700BF18461A
:10C0B00000B58FB00190009100230393019B586954
:10C0C000009B9B8803AA1946FFF7D1FA0D9005AB98
:10C0D00008220021184610F0AFFE04AB069302239D
:10C0E000ADF814300023ADF81630009B9888019B02
:10C0F0001B8905AA1946FFF7CFFF0D900D9B002B5A
:10C1000026D1019B9B69002B22D0069B1846FFF786
:10C110000CFB0346002B1BD0039B002B02D0039B80
:10C1200001221A7007AB18220021184610F084FE75
:10C1300002238DF81C30019B0893009B9B88ADF86F
:10C140002430039B0A93019B9B6907AA10469847DA
:10C1500000BF0FB05DF804FB00B58DB001900091F9
:10C16000009B06330B93019B5869009B9B8803AA95
:10C170001946FFF77CFA0A9004AB182200211846F2
:10C1800010F05AFE019B0593009B9B88ADF8183078
:10C19000039B07930B9B1A88019B1B899A4225D10D
:10C1A0000B9B5B89022B21D1039B002B38D00B9B6F
:10C1B0000C331846FFF7B9FA0346002B06D0039B51
:10C1C00001221A7002238DF8103005E0039B002233
:10C1D0001A7003238DF81030019B9B69002B1FD030
:10C1E000019B9B6904AA1046984719E00B9B1A888B
:10C1F000019B9B899A4214D1019B9B69002B10D013
:10C2000000238DF810300B9B0C3308930B9B5B893C
:10C21000ADF82430019B9B6904AA1046984700E0C2
:10C2200000BF00BF0DB05DF804FB00B58BB00190FE
:10C230000091019B5869009B9B8802AA1946FFF751
:10C2400016FA0990099B002B1ED1029B1B78002B2C
:10C250001BD0019B9B69002B17D003AB1822002138
:10C26000184610F0E9FD01238DF80C30019B049372
:10C27000009B9B88ADF81430029B0693019B9B6941
:10C2800003AA1046984700E000BF0BB05DF804FB1E
:10C2900000B585B001900091009B002B1ED0019B42
:10C2A000002B1BD0009B0393019B1B88572B10D0A6
:10C2B000572B15DC102B02D0502B05D010E0019924
:10C2C0000398FFF7F5FE0CE001990398FFF744FF90
:10C2D00007E001990398FFF7A8FF02E000BF00E024
:10C2E00000BF05B05DF804FB10B592B0019000915D
:10C2F0004F4B0AAC0FCB84E80F00019B002B01D100
:10C300000E2391E0009B002B01D10E238CE0009BBB
:10C310001A68019B9A61019A0AAB11461846FFF709
:10C32000C3FE1190119B1093109B002B01D0109B0A
:10C330007AE0019B1B788DF83A300123ADF8383054
:10C34000019B9A1C0EAB19460120FFF7A1FE11902C
:10C35000119B0F930F9B002B01D00F9B64E002AB4E
:10C3600020220021184610F067FD0223ADF80830A6
:10C37000019B1B788DF80A30F423ADF80C300123B3
:10C38000ADF80E3001238DF814309DF8153043F0D0
:10C3900008038DF815309DF8153043F004038DF82F
:10C3A000153001238DF8193001238DF81A30019BC7
:10C3B0005888019B03F10C0202AB1946FFF73AFAC9
:10C3C0001190119B002B01D0119B2DE002AB20227C
:10C3D0000021184610F030FD0323ADF80830019B12
:10C3E0001B788DF80A30F423ADF80C300123ADF83A
:10C3F0000E3001238DF814309DF8153043F01003F2
:10C400008DF8153001238DF8193001238DF81A307D
:10C4100001238DF81B30019B5888019B1A1D02AB2C
:10C420001946FFF707FA0346184612B010BD00BFC1
:10C4300074D7030000B58DB0039002910192ADF85E
:10C440000230039B002B01D10E2342E0039B5B696A
:10C4500005AABDF802101846FFF709F90B900B9BCF
:10C460000A930A9B002B01D00A9B32E0BDF80230F0
:10C470004FF6FF72934202D0059B002B01D105239A
:10C4800027E0059B1B7883F00103DBB2002B01D072
:10C4900008231EE0019B1B88F42B01D9072318E019
:10C4A00006AB10220021184610F0C6FC039B9B88A7
:10C4B000ADF81830029B0993019B089301238DF876
:10C4C0001A3006AABDF8023011461846FFF7E8FDFB
:10C4D000034618460DB05DF804FB000082B0034629
:10C4E0008DF807309DF90730002B13DB9DF80730DE
:10C4F00003F01F0209499DF907305B09012000FA8A
:10C5000002F2203341F82320BFF34F8F00BFBFF367
:10C510006F8F00BF00BF02B0704700BF00E100E0B6
:10C5200042DF704700BF184643DF704700BF184620
:10C53000044BD3F80034002B14BF01230023DBB2DB
:10C54000184670470000014008B50FF093FC034601
:10C5500083F00103DBB2002B03D109497B20FBF7F9
:10C56000B9F8FFF7E5FF034683F00103DBB2002BC8
:10C5700004D000F095FE034B00229A7000BF08BD66
:10C580008CD703007C33002008B50FF073FC034602
:10C59000002B02D0FFF7C4FF01E000F0A1FE08BDB0
:10C5A00008B50FF067FC0346002B05D0FFF7BCFF72
:10C5B000044B00225A7004E000F0ACFE014B002254
:10C5C0005A7008BD7C330020014B1B781846704719
:10C5D0007C33002000B583B000230193184B1B78F7
:10C5E000002B02D0852301931CE0154B00229A609A
:10C5F000134B00225A60124B00221A61104B00228A
:10C60000DA60104800F00CFE01900FF033FC034696
:10C6100083F00103DBB2002B01D000F027FE084BB2
:10C6200001221A70FFF784FF0346002B02D0044B4F
:10C6300001229A70019B184603B05DF804FB00BF0D
:10C640007C33002079C8020084B001900091019BE6
:10C650001B68039306E0039A009B9A420DD0039B4C
:10C660001B680393039B002BF5D1019B1A68009B69
:10C670001A60019B009A1A6000E000BF04B0704786
:10C6800084B00190019B1B680393039B002B03D094
:10C69000039B1A68019B1A60039B184604B07047FD
:10C6A00000B583B0164B1B78002B04D1154940F21E
:10C6B0001710FBF70FF8124BDB68002B04D1114960
:10C6C0004FF48C70FBF706F800238DF807300DF15E
:10C6D000070318460BF046FD094BDB68013B084A8F
:10C6E000D360074BDB68002B01D1FFF72DFF9DF8CE
:10C6F000073018460BF04CFD00BF03B05DF804FB9B
:10C700007C3300208CD7030000B585B001902A4B04
:10C710001B78002B04D1294940F23310FAF7DAFFD5
:10C72000254B5B78DBB2002B19D0019B002B03D08B
:10C73000019B5B680020984700238DF80F300DF1B6
:10C740000F0318460BF00EFD1B4B5B6801331A4AB2
:10C7500053609DF80F3018460BF01AFD1EE00023C1
:10C760008DF80E300DF10E0318460BF0FBFC019B0B
:10C77000002B03D001991248FFF766FF0E4B5B6850
:10C78000002B01D1FFF700FF0B4B5B6801330A4A16
:10C7900053609DF80E3018460BF0FAFC064B5B68B0
:10C7A000002B04D1054940F24F10FAF793FF00BF68
:10C7B00005B05DF804FB00BF7C3300208CD703007C
:10C7C0008433002000B583B0164B1B78002B04D1B6
:10C7D00015494FF4AA70FAF77DFF124B5B68002BE6
:10C7E00004D1114940F25510FAF774FF00238DF877
:10C7F00007300DF1070318460BF0B4FC094B5B68DA
:10C80000013B084A5360074B5B68002B01D1FFF7DF
:10C81000C7FE9DF8073018460BF0BAFC00BF03B006
:10C820005DF804FB7C3300208CD7030000B585B095
:10C8300003468DF807309DF80730002B02D10C4BD2
:10C84000039301E00B4B03930398FFF719FF02904A
:10C85000029B002B06D0029B5B689DF807201046C8
:10C860009847F1E700BF00BF05B05DF804FB00BFCB
:10C87000843300208C33002000B583B003468DF84C
:10C8800007309DF80730002B05D10A4B01225A7062
:10C890000020FFF7CBFF9DF80730012B05D1054B9A
:10C8A00001229A700120FFF7C1FF00BF03B05DF8BD
:10C8B00004FB00BF7C33002000B583B001900091E1
:10C8C000019B002B05D1054B01225A700020FFF778
:10C8D000ADFF00BF03B05DF804FB00BF7C33002058
:10C8E00000B585B0034600918DF807309DF80730FC
:10C8F000032B29D0032B35DC002B02D0012B04D0D5
:10C9000030E00020FFF7EAFD2DE000238DF80F3026
:10C910000DF10F0318460BF025FC154B1B7883F027
:10C920000103DBB2002B01D0FFF754FE104BDB6894
:10C9300001330F4AD3600E4B01229A709DF80F30DD
:10C9400018460BF025FC0EE0094B1B78002B04D198
:10C95000084940F25220FAF7BDFE00F087FCFFF7CD
:10C960009FFE00E000BF00BF05B05DF804FB00BF04
:10C970007C3300208CD7030082B003468DF807304B
:10C980009DF90730002B0CDB9DF8073003F01F02E8
:10C9900005499DF907305B09012000FA02F241F8D0
:10C9A000232000BF02B0704700E100E082B00346E0
:10C9B00000918DF807309DF90730002B0ADB009BB2
:10C9C000DAB20C499DF907305201D2B20B4483F818
:10C9D00000230BE0009BDAB207499DF8073003F013
:10C9E0000F03043B5201D2B20B441A7600BF02B0CF
:10C9F000704700BF00E100E000ED00E000B583B04B
:10CA000003460A468DF8073013468DF806309DF828
:10CA10000630012B03D99DF80630032B0BD99DF866
:10CA20000630042B03D99DF80630072B03D908499B
:10CA30006B20FAF74FFE9DF806209DF9073011464E
:10CA40001846FFF7B3FF00BF03B05DF804FB00BF5B
:10CA5000E8D7030000B583B003468DF807309DF991
:10CA600007301846FFF788FF00BF03B05DF804FBEE
:10CA700036DF704700BF18464DDF704700BF1846CD
:10CA80004EDF704700BF18464FDF704700BF1846A3
:10CA900050DF704700BF184682B001904FF08042CF
:10CAA000019BC2F8043300BF02B0704700B585B0E7
:10CAB0000190104B1B78002B01D0852316E00FF05E
:10CAC000D9F90346002B01D008230FE0019B002B6E
:10CAD00001D1094B0193019801F06CFC0390039B79
